:020000040800F2
:10000000F80500209D010008FF1C00081B1B0008CC
:10001000FD1C00080D0800085F2600080000000015
:10002000000000000000000000000000D31F0008D6
:100030000F08000800000000D11F00080D20000874
:10004000B7010008B7010008B7010008B7010008B0
:10005000B7010008B7010008B7010008B7010008A0
:10006000B7010008B7010008B7010008B701000890
:10007000B7010008B7010008B7010008B701000880
:10008000B7010008B7010008B7010008B701000870
:10009000B7010008B7010008B7010008B701000860
:1000A000B7010008B7010008B7010008B701000850
:1000B000B5200008B7010008C1200008B7010008FA
:1000C000B7010008B7010008B7010008B701000830
:1000D000B7010008B7010008B7010008B701000820
:1000E000B7010008B7010008B7010008B701000810
:1000F000B7010008B7010008B7010008B701000800
:10010000B7010008B7010008B7010008B7010008EF
:10011000B7010008A1230008B7010008B7010008D3
:10012000B7010008B7010008B7010008B7010008CF
:10013000B7010008B7010008B7010008B7010008BF
:10014000B7010008B7010008B7010008B7010008AF
:10015000B7010008B7010008B7010008B70100089F
:10016000B7010008B7010008B7010008B70100088F
:10017000B7010008B7010008B7010008000000003F
:10018000B7010008B7010008DFF80CD000F02CFB25
:100190000048004759300008F8050020064880470D
:1001A00006480047FEE7FEE7FEE7FEE7FEE7FEE75C
:1001B000FEE7FEE7FEE7FEE7992000088901000858
:1001C0002DE9F05F0546002092469B46884606468C
:1001D000814640241BE0284641464746224600F01F
:1001E0006CFA53465A46C01A914110D3114618462C
:1001F000224600F053FA2D1A67EB01084F462246BB
:100200000120002100F04AFA17EB00094E41201EA0
:10021000A4F10104DFDC484631462A464346BDE8E6
:10022000F09FD2B201E000F8012B491EFBD27047CB
:100230000022F6E710B513460A4604461946FFF7B2
:10024000F0FF204610BD2DE9FE4F804681EA0300F5
:10025000C00F0C46009021F0004123F00045B8EBA0
:100260000200A94105D24046214690461C460B4655
:10027000024623F00040104347D0270DC7F30A0081
:10028000C3F30A510290401A019040286BDAC3F37D
:10029000130040F4801B0098924620B10023D2EB5B
:1002A000030A63EB0B0B01985946C0F1400250461C
:1002B00000F0F4F906460D4650465946019A00F002
:1002C0000CFA10EB08006141002487EA115284EA1D
:1002D000E7731A4340D0009A62B3019A012A4FEAA9
:1002E000075215DC001B61EB02014FF0004202EAED
:1002F0000752CDE90042001C41F5801132462B46E1
:1003000000F00CFA03B0BDE8F08F40462146F9E753
:10031000001B61EB0201001C41F5801300185B41DA
:100320002018A2F5001747EB030140EAD570B61973
:100330006D4111E06D084FEA360645EAC0754FEA97
:100340000752001B61EB0201001C41F580114908B6
:100350004FEA30000019514132462B4603B0BDE848
:10036000F04F00F0CCB90098012240000023D0EB00
:10037000020263EBE073009821464FEAE074B8EBA9
:10038000000061EB0401E9E783F000435BE781F0E3
:10039000004158E72DE9FE4F81EA030404F00044D0
:1003A00021F0004100944FF0000B23F0004350EA8D
:1003B00001045ED052EA03045BD0C3F30A54C1F3D4
:1003C0000A552C44A4F2F3340194A0FB0254C1F367
:1003D000130141F48011C3F3130343F4801301FBB1
:1003E000024400FB034E840A970A44EA815447EA18
:1003F0008357A4FB076802958D0A05FB07854FEA22
:10040000932C04FB0C542705029D4FEA065847EA3B
:100410001637B5EB08056EEB070C870E920E47EA10
:10042000811742EA8312A7FB0201B6EB0B0164EBD2
:1004300000042B0D43EA0C335E1844EB1C50DA46E3
:100440005146E7FB0201C5F313044FEA0B3343EABD
:1004500014534FEA0432019C43EA0603A4F10C044E
:100460000294009CCDE900B400F058F903B0BDE857
:10047000F08F00200146F9E72DE9F04D81EA0304F1
:1004800004F0004B21F0004514464FF0000A23F021
:10049000004150EA050220D054EA01021DD0C5F304
:1004A0000A570246C5F31303C1F31300C1F30A56FA
:1004B00040F4801543F48013A7EB0608101BD646C2
:1004C00008F2FD3873EB050002D308F1010801E0E2
:1004D00092185B41B8F1000F03DA00200146BDE835
:1004E000F08D00204FF48011064684460EE0171B65
:1004F00073EB050705D3121B63EB050306434CEAB8
:10050000010C49084FEA300092185B4150EA01079C
:10051000EDD152EA030012D082EA040083EA050119
:10052000084305D0101BAB4106D20122002306E090
:1005300000224FF0004302E06FF0010253101AEB6B
:1005400006004CEB085110EB0A0041EB0B01BDE833
:10055000F04D00F0D4B80EB5C10F80EAE070084449
:10056000CA07002140F233438DE80E000A460B46CD
:1005700000F0D4F803B000BD70B5C1F30A5201F029
:1005800000450024C1F3130140F2FF3341F4801110
:100590009A4201DA002070BD40F233439A42A2F23F
:1005A000334203DC524200F088F800E090402C43D4
:1005B000F1D0404270BDC1F30A5210B5C1F313012E
:1005C00040F2FF3341F480119A4201DA002010BD5D
:1005D00040F233439A42A2F2334203DC524200F02B
:1005E0006CF810BD904010BD00F0004230F00040AB
:1005F0000AD0C10D01F56071C0F3160042EA015145
:10060000C2084007114370470020014670470000B0
:1006100030B5041E71F1000404DB4FF00044404289
:1006200064EB0101141E73F1000405DB1C464FF05E
:100630000043524263EB04038B4208BF824230BD49
:1006400030B5041E71F1000404DB4FF00044404259
:1006500064EB0101141E73F1000405DB1C464FF02E
:100660000043524263EB0403994208BF904230BDFD
:1006700030B50B46014600202022012409E021FA72
:1006800002F59D4205D303FA02F5491B04FA02F56F
:100690002844151EA2F10102F1DC30BD202A04DB42
:1006A000203A00FA02F1002070479140C2F1200385
:1006B00020FA03F3194390407047202A04DB203AC4
:1006C00021FA02F00021704721FA02F3D040C2F172
:1006D00020029140084319467047202A06DBCB17B9
:1006E000203A41FA02F043EAE07306E041FA02F3ED
:1006F000D040C2F12002914008431946704710B51E
:10070000141E73F1000408DA401C41F10001921834
:100710005B411A4301D120F0010010BD2DE9F04DDD
:1007200092469B4611B1B1FA81F202E0B0FA80F232
:1007300020329046FFF7B2FF04460F4640EA0A0017
:1007400041EA0B0153465A46084313D0114653EA77
:10075000010019D0C8F140025046FFF7AEFF054630
:100760000E46504659464246FFF798FF084305D0CB
:10077000012004E020463946BDE8F08D0020054305
:1007800046EAE0762C4337430A986305E40AA0EB77
:1007900008000022FD0A44EA47540A3002D500202E
:1007A0000146E9E7010510196941DDE9084500192D
:1007B0006941BDE8F04DA2E7C1F30A52C1F313014C
:1007C00040F2FF3341F480119A4202DA00200146E0
:1007D000704740F233439A42A2F2334202DC524263
:1007E000FFF76BBFFFF75ABF064C074D06E0E06806
:1007F00040F0010394E8070098471034AC42F6D368
:10080000FFF7C6FCB4350008D4350008FEE7704792
:1008100090F83510022903D08021416501207047EE
:10082000052180F835100068016821F001010160A0
:10083000002070472DE9F84F00224FF001080325F2
:100840004FF00F0E0B6808FA02F42340A3426ED15A
:100850004E68012E05D0022E03D0112E01D0122E8B
:1008600012D186684FEA420C05FA0CF7BE43CF68F6
:1008700007FA0CF7374387604668A6430C79C4F340
:100880000014944034434460C668570005FA07FCDE
:100890008C6826EA0C06BC403443C4604C68022CC9
:1008A00001D0122C13D1D40800EB8404A346D4F851
:1008B000209054074FEAD46A0EFA0AF629EA06098C
:1008C0000E6906FA0AF646EA0906CBF820600668C1
:1008D0000C7926EA0C0604F00304BC40344304609F
:1008E0004C68E40065D5364C266846F480462660A0
:1008F000246822F0030604F480440094314C34440C
:10090000A446D4F808489607370F0EFA07F6B44302
:100910002D4EB04201D1002624E02C4EB04201D130
:1009200001261FE02A4EB04202D102261AE040E022
:10093000284EB04201D1032614E0274EB04201D127
:1009400004260FE0254EB04201D105260AE0244ED0
:10095000B04201D1062605E0224EB04201D1072661
:1009600000E00826BE402643CCF808681E4E3468D6
:100970004F689C43FF0300D51C4334601A4C241D70
:1009800026684F689E43BF0300D51E432660164E5F
:10099000083634684F689C43FF0200D51C4334601E
:1009A000114E0C3634684F689C43BF0200D51C437F
:1009B0003460521C102AFFF445AFBDE8F88F0000E8
:1009C0004438024000300140000002400004024070
:1009D00000080240000C02400010024000140240D7
:1009E00000180240001C0240003C01400AB1816135
:1009F00070470904FBE70000014880687047000069
:100A0000A00000200248816802781144816070478C
:100A1000A00000200B4810B5016841F4007101608E
:100A2000016841F480610160016841F480710160F6
:100A3000032000F06FF8002000F006F800F024F822
:100A4000002010BD003C024070B50D4D04464FF42F
:100A50007A712878B1FBF0F00A490968B1FBF0F02F
:100A600000F002FB48B9102C07D200222146501E8C
:100A700000F030F800206C6070BD012070BD0000F7
:100A8000A0000020AC0000200A4808B5016841F42D
:100A900080410160006800F4804000900548001F1C
:100AA000016841F080510160006800F080500090C2
:100AB00008BD000044380240002809DB00F01F0296
:100AC000012191404009800000F1E020C0F80011B0
:100AD00070470000F0B40E4B1B680C46C3F30223B2
:100AE000C3F10705042D00D90425191D072901D2DA
:100AF000002300E0DB1E012606FA05F1491E214015
:100B000099409E40761E16403143F0BC01F0BCBDBA
:100B10000CED00E0064900F0070208684FF6FF03FD
:100B2000184040EA0220034A104308607047000062
:100B30000CED00E00000FA052DE9F0470E46050037
:100B400065D0DFF81481D8F80000F7B200F00F008C
:100B5000B04207D288F80070D8F8000000F00F000B
:100B6000B04254D128683D4C810712D5400703D5C7
:100B7000206840F4E05020602878000703D5206802
:100B800040F4604020602068A96820F0F00008432D
:100B900020602878C0072DD03049686808390128BE
:100BA00012D0022813D0032811D009688907002920
:100BB0002DDA216821F0030101432160FFF71CFFBA
:100BC000814641F2883A0EE009688903EFE7096837
:100BD0008901ECE7FFF710FFA0EB0901514502D9AD
:100BE0000320BDE8F0872068696800F00C00B0EBD6
:100BF000810FEFD1D8F80010404601F00F01B1424B
:100C000007D90770006800F00F00B04201D0012042
:100C1000E7E72878400705D52068E96820F4E05028
:100C2000084320602878000706D52068296920F449
:100C3000604040EAC100206000F038F82168084AAE
:100C4000C1F30311515CC8400649086006480068BA
:100C5000FFF7FAFE0020C4E7003C024008380240DB
:100C60009C350008AC000020A40000200448054981
:100C700000680968044AC1F38221515CC84070478A
:100C8000AC00002008380240AC3500080448054993
:100C900000680968044AC1F34231515CC84070479A
:100CA000AC00002008380240AC350008154810B5EB
:100CB000006810F00C02144813D04110042A0FD021
:100CC000082A0ED10F4C241F2268236802F03F022D
:100CD0005B0207D52068C0F38810A0FB010106E085
:100CE000084610BD2168C1F38811A1FB0001002353
:100CF000FFF766FA2168C1F30141491C4900B0FBC6
:100D0000F1F010BD083802400024F4002DE9F84F3E
:100D100004006ED02078DFF83C93C007A9F10405E9
:100D20004AD009F104000168C1F38101012908D00A
:100D30000068C0F3810002280AD1D9F800004002FF
:100D400006D52868800337D560680028E1D033E0F5
:100D50006068B0F5803F10D0B0F5A02F286810D0A3
:100D600020F480302860286820F4802028606068A3
:100D7000A8B1FFF741FE06460DE0286840F4803038
:100D8000F4E740F480202860F7E700BFFFF734FE67
:100D9000801B642873D828688003F7D50CE0FFF720
:100DA0002BFE064605E000BFFFF726FE801B6428E9
:100DB000F0D828688003F7D42078DFF89C82800779
:100DC0004FF0000A3ED5A348001D016811F00C0F3A
:100DD00008D00068C0F3810002280BD1D9F80000C8
:100DE000400207D42868800716D5E068012800D1A2
:100DF00012E02BE1E068B8B10120C8F80000FFF76D
:100E0000FBFD064605E000BFFFF7F6FD801B02284C
:100E1000C0D828688007F7D52868216920F0F80035
:100E200040EAC10028600DE0C8F800A0FFF7E4FD2B
:100E3000064604E0FFF7E0FD801B02281FD8286863
:100E40008007F7D42078000722D5824E8348616955
:100E5000703671B101210160FFF7CEFD074604E055
:100E6000FFF7CAFDC01B022809D830688007F7D5F4
:100E70000EE0C0F800A0FFF7BFFD074605E082E0E6
:100E8000FFF7BAFDC01B02287DD830688007F7D471
:100E90002078400768D5DFF8BCB100270BF13C0B88
:100EA000DBF80000C0000BD4DBF8001041F08051EB
:100EB000CBF80010DBF80000012700F08050009014
:100EC000674E3068C00510D4306840F480703060E0
:100ED000FFF792FD009005E0FFF78EFD0099401AA4
:100EE000022850D83068C005F6D55A4EA0686C3636
:100EF00001280FD00528306810D020F001003060A4
:100F0000306820F004003060A068B8B1FFF774FDCD
:100F100000900FE0306840F00100F4E740F004007A
:100F20003060F7E7FFF768FD0099411A41F2883019
:100F3000814266D830688007F4D50EE0FFF75CFD8B
:100F4000009007E0FFF758FD0099411A41F2883000
:100F5000814256D830688007F4D42FB1DBF80010F6
:100F600021F08051CBF80010A069C8B33949091DA0
:100F70000968C1F3810102294AD00228504607D0EE
:100F8000C8F8600000E03CE0FFF736FD04463BE0B7
:100F90004746C8F86000FFF72FFD064605E000BF92
:100FA000FFF72AFD801B02282BD828688001F7D480
:100FB000D4E907010843A16A2A4A490802EB014122
:100FC000626A41EA8211084394F82C1040EA0161F8
:100FD000C9F8001001203866FFF70EFD044606E050
:100FE00036E000BFFFF708FD001B022809D828687B
:100FF0008001F7D52CE000BFFFF7FEFC001B0228A4
:1010000002D90320BDE8F88F28688001F4D41FE0DE
:101010000128F7D0D9F80000E26900F4800191427C
:1010200014D1226A00F03F0191420FD147F6C071FE
:10103000626A0140914209D1A26A00F440319142B2
:1010400004D1E16A00F07060884201D00120D9E744
:101050000020D7E70438024000004742800E474294
:10106000007000400000FFFF10B5401EB0F1807F0F
:1010700001D3012010BD4FF0E02460610F21601703
:1010800001F002FB0020A06107202061002010BDBC
:101090007047704770B590F83C20012A32D0012487
:1010A00080F83C40022280F83D2003685A689D6821
:1010B00022F070060A6832435A60134B02689A4263
:1010C00014D0B2F1804F11D0104B9A420ED0104B79
:1010D0009A420BD00F4B9A4208D00F4B9A4205D040
:1010E0000E4B9A4202D00E4B9A4204D1496825F029
:1010F00080031943916080F83D40002180F83C1046
:10110000084670BD022070BD000001400004004090
:1011100000080040000C0040000401400040014075
:101120000018004010B5040003D094F83D0010B141
:1011300007E0012010BD002084F83C00204600F0AC
:101140000DF8022084F83D00211D206800F0BEFF4C
:10115000012084F83D00002010BD000008B50168A2
:101160001448B1F1804F14D0134A914220D1016844
:1011700041F0040101600068002200F004000090CA
:1011800011461E20FFF7A6FC1E20BDE80840FFF711
:1011900093BC016841F0010101600068002200F089
:1011A0000100009011461C20FFF794FC1C20ECE786
:1011B00008BD000040380240000800400168CA68CD
:1011C00042F00102CA600068816801F00701062947
:1011D00003D0016841F0010101600020704770B543
:1011E000044690F83C00012817D0012584F83C50B3
:1011F000022084F83D002068826822F0770222F401
:101200007F4282600868502830D00DDC20284DD005
:1012100005DC98B310283BD148E0022070BD30288F
:1012200044D0402834D139E0602828D0702806D036
:10123000B0F5805F2CD0B0F5005F29D10AE0CB6813
:10124000D1E90121206800F0B2FF2068816841F0F7
:10125000770109E0CB68D1E90121206800F0A7FF00
:101260002068816841F48041816011E0CA68496862
:10127000206801F071F85021206807E016E0CA6884
:101280004968206801F079F86021206800F099FF32
:1012900084F83D50002084F83C0070BDCA6849685D
:1012A000206801F059F840212068EFE722680146E4
:1012B0001046EBE72DE9F0410D46040003D094F809
:1012C0003D0018B108E00120BDE8F081002084F85D
:1012D0003C00204600F03AF8022084F83D002068E7
:1012E000816844F2070291438160211D206800F06B
:1012F000EDFE226890689169166A2B68AF69034316
:1013000040F20330814341EA0721A868EF690843AE
:101310004FF6FC418843E96840EA07200143286909
:101320002F6A000140EA0730084369686D6926F0BA
:10133000AA0646EA05152943936022689061206851
:101340000162012084F83D000020BDE710B586B0A1
:10135000044614216846FEF76BFF13492068884253
:101360001FD112480021026842F0020202600068A8
:1013700000F0020005900D481038026842F00102AA
:1013800002600068012200F001000590C02000907A
:101390000220CDE90102CDE9031069460448FFF7B8
:1013A00049FA06B010BD0000000400404038024079
:1013B0000000024010B50446006891B1042904D031
:1013C0000122002100F0E6FE206801225FF0040106
:1013D00000F0E0FE2068016841F00101016000209A
:1013E00010BD01220021F3E7704770B50446006884
:1013F00001694FF00005C943890715D4C168C94385
:10140000890711D4E91E01610120207720688069D5
:101410008007204602D0FFF7E7FF04E000F0C2F8A3
:10142000204600F044F9257720680169C94349073F
:1014300017D4C168C943490713D46FF0040101618F
:10144000022020772068806910F4407F204602D077
:10145000FFF7CAFF04E000F0A5F8204600F027F9E6
:10146000257720680169C943090716D4C168C943B3
:10147000090712D46FF00801016104202077206869
:10148000C0698007204602D0FFF7AEFF04E000F0FD
:1014900089F8204600F00BF9257720680169C943D7
:1014A000C90617D4C168C943C90613D46FF0100127
:1014B0000161082020772068C06910F4407F204631
:1014C00002D0FFF791FF04E000F06CF8204600F036
:1014D000EEF8257720680169C943C90708D1C168BA
:1014E000C943C90704D1891E0161204600F002F9F1
:1014F00020680169C943090609D4C168C9430906BE
:1015000005D46FF0800101612046FFF7C1FD20681E
:101510000169C943490609D4C168C943490605D4CC
:101520006FF040010161204600F016F92068016962
:10153000C94389060BD4C168C943890607D46FF033
:10154000200101612046BDE87040FFF7A2BD70BDDB
:1015500010B586B0044614216846FEF769FE0E49B0
:101560002068884215D10D480021026842F0080227
:101570000260006800F0080005904FF48050009071
:101580000220CDE90101CDE9031069460448FFF7C7
:1015900051F906B010BD000000080040303802408C
:1015A000000C0240704770B5044690F83C000D46B0
:1015B00001280DD0012684F83C60022084F83D000B
:1015C00042B1042A18D0082A2AD00C2A4DD139E079
:1015D000022070BD206800F0FDFD2068816941F0A7
:1015E000080181612068816921F00401816120681E
:1015F00081692A69114311E0206800F01BFE206810
:10160000816941F4006181612068816921F4806110
:101610008161206881692A6941EA0221816124E0AF
:10162000206800F03DFE2068C16941F00801C161F9
:101630002068C16921F00401C1612068C1692A697B
:10164000114311E0206800F05FFE2068C16941F499
:101650000061C1612068C16921F48061C1612068B5
:10166000C1692A6941EA0221C16184F83D60002014
:1016700084F83C0070BD10B5040003D094F83D0020
:1016800010B107E0012010BD002084F83C00204686
:1016900000F00CF8022084F83D00211D206800F0C5
:1016A00015FD012084F83D00002010BD70477047F3
:1016B00010B504460068012200F06CFD0B4920685B
:1016C000884202D00A49884203D1416C41F400416A
:1016D00041642068816801F00701062903D0016890
:1016E00041F001010160002010BD00000000014038
:1016F0000004014010B5164900680968884226D1E7
:1017000001F060FC1348416A491C4162C16801292B
:101710001DD1416B01290ED0816B012917D190EDAC
:101720000F0A0B49BDE81040BDEEC00A403110EE73
:10173000100A00F0E5BA90ED180B51EC100BFEF713
:101740001BFF0349BDE81040403100F097BB10BDBE
:10175000B0000020000000207047704770B502689C
:1017600004461068D168536910F00F0F52D003F08F
:10177000010501F490762E435FD0C20705D0CA055B
:1017800003D5E26B42F00102E263420705D5DA07B6
:1017900003D0E26B42F00202E263820705D5DA076A
:1017A00003D0E26B42F00402E263020707D501F0C6
:1017B00020022A4303D0E26B42F00802E263E26BAC
:1017C000002A33D0800604D5880602D5204600F0D2
:1017D00003FE20684069E16BC0F38010090700D464
:1017E00028B3204600F0EAFD2068416949061AD571
:1017F000416921F040014161606BA0B11B49016565
:10180000606BFFF705F8002810D0606B016DBDE834
:1018100070400847830610D58B060ED52046BDE8DC
:10182000704000F0D9BD2046FFF797FF70BD2046FD
:10183000FFF793FF0020E06370BD030606D50B069B
:1018400004D52046BDE8704000F0A6BE4006F3D5A2
:101850004806F1D5D168204621F04001D160202111
:1018600084F8391000F058F970BD0000AD2300086D
:1018700070B5040004D094F83900002510B106E0DA
:10188000012070BD84F83850204600F023F8242051
:1018900084F839002068C16821F40051C1602046F5
:1018A00000F0E6FD2068016921F4904101612068A3
:1018B000416921F02A0141612068C16841F4005169
:1018C000C160E563202084F8390084F83A000020E4
:1018D00070BD0000F0B587B0044614216846FEF7DD
:1018E000A7FC1E492068884235D11D48016841F493
:1018F00080110160006800F48010059018481038CD
:10190000016841F004010160016801F004010591E2
:10191000016841F0080101600068022400F008003D
:1019200005904FF480500125032608278DE8F1002B
:1019300069460C48FEF77EFF04208DE8F1006946F9
:101940000948FEF777FF002211463520FFF7C2F85D
:101950003520FFF7B1F807B0F0BD0000005000409F
:101960004038024000080240000C024090F83A3033
:10197000202B22D1F9B1F2B190F83830012B1CD0D4
:1019800081628285C2850021C163222280F83A20CB
:1019900080F838100168CA6842F48072CA60016831
:1019A0004A6942F001024A610068C16841F02001C1
:1019B000C16000207047012070470220704700007E
:1019C00070B515490122A1F15E00FFF7CFFF124863
:1019D000124C01250078A064252808D12146412019
:1019E00008700D4801225E3800F077F8A562A06CFF
:1019F00065280BD0A16A012907D1252805D0064A00
:101A0000616914325054491C616170BD00206061ED
:101A1000E561A06270BD0000CE0100200000002042
:101A20002DE9F843044690F839001F4616460D4646
:101A3000202850D1B5B1AEB194F8380001284AD071
:101A4000012084F838004FF00008C4F83C802120C1
:101A500084F83900FEF7D0FFA6848146E68484F836
:101A6000388026E00120BDE8F883E08C401EE08449
:101A7000A0684B46B0F5805F4FF000024FF0800148
:101A80002046009703D000F0B8FDE8B90DE000F063
:101A9000B4FDC8B928882168C0F3080048602069EF
:101AA00008B16D1C05E0AD1C03E0216815F8010BC1
:101AB0004860E08C0028D8D14B46002240212046C7
:101AC000009700F09AFD08B10320CCE7202084F8AD
:101AD00039000020C7E70220C5E790F83930202BF5
:101AE00018D1A9B1A2B190F83830012B12D00162FF
:101AF0008284C2840021C163212280F8392080F8C9
:101B000038100068C16841F08001C1600020704752
:101B100001207047022070477047FEE72DE9F04131
:101B200086B014216846FEF783FB2748002401682D
:101B300041F010010160016801F010010591016898
:101B400041F004010160016801F0040105910168A0
:101B500041F080010160016801F080010591016898
:101B600041F001010160016801F001010591016886
:101B700041F0080101600068144F00F00800059072
:101B8000002220213846FEF731FFDFF844804FF471
:101B90002046002231464046FEF728FF20200090D4
:101BA0000125CDE90154694638460394FEF742FE0B
:101BB0000096CDE90154694640460394FEF73AFE8B
:101BC00006B0BDE8F081000030380240001002404D
:101BD0000008024010B586B000241148009401941A
:101BE0000294039404944FF080410594016042F202
:101BF000CF01C0E901146321C0E903148461FFF738
:101C000091FA4FF48050009069460548FFF7E7FAD3
:101C1000049404A902480594FFF73CFA06B010BDED
:101C2000B000002010B58CB024216846FEF700FB00
:101C300000241248099410490A94C0E900144FF690
:101C4000FF71C0E90241046184610320CDE9000411
:101C50000120CDE902040494CDE9054007946946CA
:101C600006480894FFF726FB099409A903480A943B
:101C7000FFF710FA0CB010BD00040040F000002087
:101C800010B58EB000240794089409940A940B941C
:101C90001C2168460C94FEF7CBFA174815490160E1
:101CA0005321C0E9011440F2E731C0E90314846113
:101CB000FFF738FA4FF48050079007A90E48FFF756
:101CC0008EFA0D48FFF7D7FC0B940BA90A480C9429
:101CD000FFF7E0F96020CDE9000402940022694694
:101CE00005480494FFF75FFC0348FFF731FC0EB092
:101CF00010BD00000008004030010020FEE77047E2
:101D00002DE9F041534C00EE900A2DED088BF8EED2
:101D1000E00A94ED0B0AB8EEC00A84ED110A30EE29
:101D2000C00ABDEEC00A10EE105A25636668A81BF3
:101D3000FEF711FC04F1800797ED001B53EC112B0B
:101D4000FEF728FB41EC1A0BA81984ED1AABFEF73D
:101D500002FC41EC180B9FED400B53EC102B97ED60
:101D6000040B51EC100BFEF715FB94ED14BB53EC78
:101D70001B2BFEF70FFB53EC182BFEF70BFB41EC74
:101D8000180B704284ED1C8BA16805EB40000844E1
:101D9000FEF7E1FB97ED020B41EC190B53EC1B2B0B
:101DA00051EC100BFEF768FB53EC192BFEF7F2FA1F
:101DB00041EC190B53EC1A2B84ED1E9B97ED060B8F
:101DC00051EC100BFEF73FFA53EC182BFEF73BFAE1
:101DD00053EC192BFEF737FAC7E90601C4E901569F
:101DE0009FED1F8B9FED209B002D03D007DD4FF053
:101DF000010007E09FED1E0B87ED060B03E002DA02
:101E00004FF00000206197ED060B53EC182B51ECBE
:101E1000100BFEF715FC01D287ED068B97ED060B34
:101E200053EC192B51EC100BFEF7F2FB01D287EDAE
:101E3000069B206901F0A6F897ED060B51EC100BFC
:101E4000FEF7B9FB0C4909684863BDEC088BBDE897
:101E5000F081000000000020000000000000E03FD2
:101E60000000000000806B400000000000806BC09C
:101E70000000000000000000300100202DE9F041CA
:101E80002DED088BFEF767FB494C94ED161B53ECC8
:101E9000112BFEF779FAFEF76FFB206366680546A3
:101EA000801BFEF758FB04F1800797ED001B53ECF5
:101EB000112BFEF76FFA41EC180BA81984ED1A8B61
:101EC000FEF749FB9FED3B0B41EC190B53EC102B3C
:101ED00097ED040B51EC100BFEF75CFA94ED14BB7C
:101EE00053EC1B2BFEF756FA53EC192BFEF752FA64
:101EF00041EC190B704284ED1C9BA16805EB40007E
:101F00000844FEF728FB97ED020B41EC1A0B53EC4B
:101F10001B2B51EC100BFEF7AFFA53EC1A2BFEF70C
:101F200039FA41EC1A0B53EC182B84ED1EAB97EDEC
:101F3000060B51EC100BFEF786F953EC192BFEF74C
:101F400082F953EC1A2BFEF77EF9C7E90601C4E9C2
:101F500001569FED1A9B9FED1B8BE06808B987ED3A
:101F6000068B97ED060B53EC192B51EC100BFEF77B
:101F700067FB01D887ED069B97ED060B53EC182BFA
:101F800051EC100BFEF744FB01D887ED068B0120C6
:101F9000206100F0F7FF97ED060B51EC100BFEF7F8
:101FA0000AFB0A4909684863BDEC088BBDE8F0816B
:101FB00000000020000000000000E03F00000000E2
:101FC00000388F40000000000000000030010020B9
:101FD000704770470A489FED080B002180ED180BF1
:101FE0009FED080A80ED0F0AC160816341630648D6
:101FF000006841637047000000000000000000001E
:10200000000000200000000030010020FEF7FABCB4
:1020100030B593B030216846FEF70AF914210CA8B8
:10202000FEF706F91A480025016841F08051016069
:10203000006800F0805011901648016841F480411A
:1020400001600068022400F480401190012000909B
:10205000000401908001CDE90640082008904FF46B
:10206000A870CDE9090404200B906846FEF74EFEE7
:102070000CA90F2081E831004FF4A0500F90E0022E
:10208000109005210CA8FEF757FD13B030BD0000DD
:1020900040380240007000400548016841F470017A
:1020A000016003494FF0006080390860704700000C
:1020B00088ED00E00148FFF798B90000B00000206B
:1020C0000148FFF792B9000030010020F0B5026826
:1020D000254C264D264E274F274B4FF0804CA042D3
:1020E00009D0604507D0A84205D0B04203D0B8421D
:1020F00001D0984204D122F0700E4A6842EA0E02E2
:10210000A0421BD0604519D0A84217D0B04215D0CC
:10211000B84213D0984211D0184DA8420ED0184D95
:10212000A8420BD0174DA84208D0174DA84205D0A1
:10213000164DA84202D0164DA84203D122F4407594
:10214000CA682A434D6922F080022A4302608A68E5
:10215000C2620A688262A04201D0984201D1096934
:10216000016301214161F0BD000001400004004015
:1021700000080040000C0040000401400040014005
:10218000004401400048014000180040001C00408D
:102190000020004010B501F01F030121046A99409E
:1021A0008C430462016A9A401143016210BD10B56C
:1021B000846842EA032224F47F440A432243826073
:1021C00010BD826822F070020A4342F0070181606C
:1021D00070470000F0B5026A22F001020262036A51
:1021E00042688469124E24F073050C682C4323F076
:1021F00002058B682B430D4DA84201D0B04205D19A
:1022000023F00807CB683B4323F00403A84201D026
:10221000B04205D14D6922F4407215438A692A43C0
:1022200042608461496841630362F0BD000001407F
:1022300000040140F0B5026A22F010020262026A54
:10224000436884690D6824F4E64444EA05248D68F3
:1022500022F0200242EA05120F4D104EA84201D092
:10226000B04206D1CF6822F0800242EA071222F083
:102270004002A84201D0B04207D14D6923F4406327
:1022800043EA85038D6943EA8503436084614968B5
:1022900081630262F0BD00000000014000040140C3
:1022A000F0B5026A22F480720262026A4368C4696D
:1022B00022F4007224F073050C68124E2C438D68D2
:1022C00042EA05220E4DA84201D0B04206D1CF68A5
:1022D00022F4006242EA072222F48062A84201D07E
:1022E000B04207D14D6923F4405343EA05138D6989
:1022F00043EA05134360C4614968C1630262F0BDEB
:10230000000001400004014030B5026A22F480520E
:102310000262046A4268C3690D6823F4E64343EA33
:1023200005238D6824F4005444EA0534084DA8427E
:1023300002D0084DA84204D14D6922F4804242EAFD
:1023400085124260C36149680164046230BD0000C7
:10235000000001400004014010B5036A046A24F043
:1023600001040462846924F0F00444EA021423F0B6
:102370000A020A438461026210BD10B5036A23F0A9
:10238000100303628369046A23F4704343EA023250
:1023900024F0A00343EA01118261016210BD000034
:1023A0000148FFF7DBB900007001002010B5806B19
:1023B0000021C185C184FFF7D0F910BD0168CA684A
:1023C00022F49072CA6001684A6922F001024A61EF
:1023D000202180F83A10704710B590F83A10222961
:1023E00001D0022010BD8168B1F5805F11D0016974
:1023F000002901681FD0496801F07F03816A4A1CE7
:1024000082620B70C18D491E0904090CC18518D068
:102410002BE00269816A002A0268526805D0D2B2B4
:102420000A80816A491C8162ECE7C2F308020A80D3
:10243000816A891CF7E74A68816A4B1C83620A70CB
:10244000E0E70168CA6822F02002CA600168CA6831
:1024500022F48072CA6001684A6922F001024A616E
:10246000202180F83A10FFF7ABFA002010BD0000E1
:102470002DE9F041044600680169E26821F4405109
:10248000114301612169A068E26908436169114350
:1024900008432168CA6849F20C639A430243CA6040
:1024A00020684169A26921F4407111434161E069EA
:1024B000192764253226B0F5004F354A3549206882
:1024C0004FF0000806D0884201D0904236D1FEF786
:1024D000DDFB35E0884201D0904202D1FEF7D6FB09
:1024E00001E0FEF7C3FB61684A18A0FB070148EB57
:1024F0000803FDF765FE0146B0FBF5F00201B1FBF4
:10250000F5F06FF01803584301EB800006EBC000B4
:10251000B0FBF5F000F0F80002EB4002B1FBF5F083
:10252000584301EB800006EBC000B0FBF5F000F073
:102530000700216810448860BDE8F081FEF796FB33
:1025400061688B0F8A00A0FB0701FDF739FE014689
:10255000B0FBF5F06FF01802504301EB800006EB82
:102560000010B0FBF5F000F0F002B1FBF5F002EB6B
:102570000012B1FBF5F06FF01803584301EB800037
:1025800006EB0010B0FBF5F000F00F00D1E7000003
:10259000001401400010014090F83910212901D0A9
:1025A000022070478168B1F5805F016A0BD04A1C38
:1025B0000262026809785160C18C491E0904090C45
:1025C000C1840ED017E009880268C1F30801516088
:1025D00001690029016A02D0491C0162ECE7891CEB
:1025E000FBE70168CA6822F08002CA600068C1681F
:1025F00041F04001C160002070472DE9F04198464C
:1026000017460E460446069D1DE0681C1BD02DB1E2
:10261000FEF7F2F9A0EB0800A84214D92068C168BF
:1026200021F4D071C1602068416921F0010141614C
:10263000202084F8390084F83A00002084F838001B
:102640000320BDE8F0812068006836EA000004D06D
:102650000020B842D9D00020F3E70120F9E7FEE7D7
:102660000FB4084B10B504A902AA039800F0EEF8C5
:10267000044602A9002000F080FC204610BC5DF852
:1026800014FB00007B2F00080907090E002804DB5B
:1026900000F1E02080F80014704700F00F0000F116
:1026A000E02080F8141D704702E008C8121F08C11E
:1026B000002AFAD170477047002001E001C1121FC3
:1026C000002AFBD1704700002DE9FF5F82B0002196
:1026D000DDE90430020DDDF840B0034318D044F6C4
:1026E0001050A2F2FF3242431514119801281FD056
:1026F000A5EB0B00401C5FEA000A4FF000064E4FAE
:10270000DFF83891B046504615D5CAF1000413E001
:10271000119801244AA3012801D16FEA0B01029804
:10272000119AC0E90031C0E9024206B0BDE8F09F4D
:10273000CBF10000DFE704460021404A491842EB94
:102740000450CDE9001012E0E00707D032463B46C6
:1027500040464946FDF71EFE8046894632463B46C6
:1027600010461946FDF716FE06460F466410002C6B
:10277000EAD1DDE90401DDE90023BAF1000F06DA50
:10278000FDF708FE42464B46FDF704FE05E0FDF767
:1027900073FE42464B46FDF76FFE04460E4600228E
:1027A000284BFDF74DFF03D84FF0FF30014607E0FF
:1027B0000022254B20463146FDF745FDFDF7FCFF85
:1027C000102409E0002C0ADB0A220023FDF7F8FCA4
:1027D000039B30321A55641E50EA0102F2D1641C88
:1027E000039AC4F111031444119A012A03D001225F
:1027F00008430DD10AE0084304D000204FF0110B2C
:10280000119072E7A3EB0B056D1E0DE05B4504DD37
:102810004FF0000205F1010504E003DA4FF0000279
:10282000A5F10105002AECD002981199C0E9023106
:10283000C0E9004579E70000000014400000F03FC7
:10284000300000000000F0430000E03F2DE9FF4FA2
:1028500095B09B468946064600250FE2252877D18C
:1028600000242746F84A0121059400E0044316F8A5
:10287000013F203B01FA03F01042F7D130782A28BB
:1028800011D06FF02F033078A0F13002092A16D84A
:10289000059A44F0020402EB820203EB4202104468
:1028A000761C0590EFE759F8042B0592002A03DA0D
:1028B000504244F40054059044F00204761C3078F1
:1028C0002E2816D116F8010F44F004042A280DD042
:1028D0006FF02F023078A0F13003092B09D807EBF5
:1028E000870302EB4303C718761CF3E759F8047B10
:1028F000761C30786C280FD006DC4C2817D068285E
:102900000DD06A2814D104E0742810D07A280FD191
:102910000DE044F400140AE044F4801401E044F4AF
:1029200040147278824202D104F58014761C761C21
:10293000307866280BD013DC582877D009DC0028C3
:1029400075D04528F6D04628F4D047281AD19DE105
:1029500018E0632835D0642879D0652812D195E134
:10296000702873D008DC6728F1D069286FD06E28F2
:102970000DD06F2806D1B5E073282CD0752875D0FE
:10298000782874D05A46179990476D1C75E1C4F3A6
:102990000250022809D003280DD0D9F800100428CD
:1029A0000DD00D6009F1040967E1D9F80010EA17AC
:1029B000C1E90052F6E7D9F800100D80F2E70D707A
:1029C000F0E719F8041B8DF8001000208DF80100C5
:1029D000EA46012003E059F804AB4FF0FF306107ED
:1029E0004FF0000102D40DE008F101018846B94220
:1029F0000FDA8045F8DB1AF808100029F4D108E056
:102A000008F1010188468142FADB1AF80810002912
:102A1000F6D105985B46A0EB080721463846179A81
:102A200000F094FA284400EB080507E04DE029E1A6
:102A30000DE01AF8010B5A4617999047B8F10108B2
:102A4000F7D25B4621463846179A13E142E00A2244
:102A50000092C4F302524FF0000A022A08D059F83B
:102A600004CB032A4FEAEC710AD00DE029E02AE0FA
:102A700009F1070121F00702F2E802C1914609E0DD
:102A80000FFA8CFC4FEAEC71042A03D14FFA8CFC4C
:102A90004FEAEC71002907DA0A460021DCF1000C4C
:102AA00061EB02012D2202E0220504D52B228DF8D4
:102AB0000420012203E0E20701D02022F7E790463C
:102AC00059E00A2102E010220DE010214FF0000A27
:102AD00000910BE010224FF0000A44F00404082794
:102AE000009203E008224FF0000A0092C4F3025261
:102AF000022A05D059F804CB0021032A08D009E0A6
:102B000009F1070121F00702F2E802C1914605E050
:102B10001FFA8CFC042A01D10CF0FF0C4FF00008C6
:102B2000220728D5702806D0009B83F0100353EAB3
:102B30000A0305D00EE040228DF80420012208E0AF
:102B40005CEA010206D030228DF804208DF80500E1
:102B500002229046009B83F0080353EA0A030AD13D
:102B60005CEA010201D1620705D530228DF804200C
:102B70004FF001087F1E582804D034A003900EA8FF
:102B800002900DE036A0F9E753466046009AFDF743
:102B900017FB84460398825C0298401E02900270E4
:102BA0005CEA0100F0D1029806A9081A00F1200A97
:102BB000600702D524F4803400E00127574502DD88
:102BC000A7EB0A0000E0002000EB0A010090059846
:102BD0004144401A0590E00306D45B462146179A0B
:102BE000059800F0B3F90544002706E001A85A460D
:102BF000C05D179990476D1C7F1C4745F6DBE003CD
:102C00000CD55B462146179A059800F09FF90544BC
:102C100004E030205A46179990476D1C0099481ED1
:102C200000900029F5DC08E0029802995A460078E5
:102C3000491C0291179990476D1CBAF10001AAF145
:102C4000010AF1DC65E1000009280100303132336E
:102C500034353637383961626364656600000000D8
:102C600030313233343536373839414243444546C2
:102C70000000000000F058F90544761C3078002868
:102C80007FF4ECAD19B02846BDE8F08F620700D4A0
:102C9000062709F1070222F0070CFCE80223E146AF
:102CA00003F000485FEA080C02D00FF2702C0DE030
:102CB0005FEA045C02D50FF2682C07E05FEAC47C8F
:102CC00002D00FF2602C01E0AFF2700C4FF0FF3831
:102CD00023F00043CDF850C065280CD006DC452811
:102CE00009D046281DD047283DD13DE0662818D0A0
:102CF00067287ED138E00021112F01DB112000E090
:102D0000781CCDE9000106A90EA8FFF7DDFCDDE97E
:102D10000F010E9A03910021009207F1010A04911C
:102D20004DE04FF000400097CDE9011006A90EA834
:102D3000FFF7CAFCDDE90F0203920E9B11990022F6
:102D4000DDF80CA00093049211B9791C00EB010A84
:102D5000B7EB0A0004D4C0F1FF3007F1010A049078
:102D6000AAEB0700019044E0012F00DA01270021BF
:102D7000112F01DD112000E03846CDE9000106A940
:102D80000EA8FFF7A1FCDDE90F010E9A03910021C7
:102D900004910092BA4621070CD40399514500DAF8
:102DA0008A46BAF1010F05DD009AAAF10101515CD2
:102DB000302908D0B84202DA10F1040F06DA0121F6
:102DC000CDE9011015E0AAF10101E9E7002805DCD1
:102DD000049901440491AAEB000102E0411C514511
:102DE00000DD8A460499401A401C01904FF00040D3
:102DF0000290200704D40198504501DBCDF80480EF
:102E000000208DF84F0002980DF14F07B0F1004FF0
:102E100025D02B200E9002984FF0020800280CDAE3
:102E2000404202902D200E9007E00A210298FDF703
:102E30001FFC3031029007F8011DB8F10001A8F124
:102E40000108F2DC02980028EFD1791E0E98087074
:102E5000307800F0200040F0450007F8020D12A87D
:102E6000C01B00F107081498007800B1012000EBA6
:102E70000A01019801EBE07105984144401A401E97
:102E80000590E00306D45B462146179A059800F0AA
:102E90005DF805441498007818B15A461799904780
:102EA0006D1CE00324D55B462146179A059800F077
:102EB0004DF805441CE00498002807DBDDE9030118
:102EC000884203DD0098405C179901E01799302093
:102ED0005A469047049805F10105401C049001985A
:102EE000401E019004D12E205A46179990476D1C20
:102EF000BAF10001AAF1010ADDDC05E017F8010BC7
:102F00005A46179990476D1CB8F10001A8F10108C5
:102F1000F4DC5B462146179A0598ABE62D000000CD
:102F20002B000000200000002DE9F04104460025A0
:102F30001E461746880404D405E039462020B047D1
:102F40006D1C641EF9D52846BDE8F0812DE9F041DD
:102F5000044600251E469046C80301D5302700E0F0
:102F60002027880404D505E041463846B0476D1C4B
:102F7000641EF9D52846BDE8F0810A68531C0B6031
:102F80001070704770B54FF400460D4CB510012815
:102F90000DD0002813D1012229462046FDF726FD39
:102FA000002231462046BDE87040FDF71FBD0122DA
:102FB00031462046FDF71AFD00222946F2E770BD92
:102FC0000008024070B51F482DED048B01684D6A62
:102FD0001D4C0022E562E36803B94A62616BDFEDD4
:102FE0001B8A9FED1B9A9FED1B8A012911D1006856
:102FF000426200EE105AB8EEC00A20EE280A60EED7
:10300000090A80EE880A10EE100AFDF7EDFAC4E90D
:103010001601A06B012812D1206A281A00EE100AAE
:10302000B8EEC00A20EE280A60EE090A80EE880A8F
:1030300010EE100AFDF7D8FA2562C4E91601BDECBE
:10304000048B70BDF00000200000002000007042E2
:103050000000C842000048442DED108B82B0FDF7FF
:10306000D9FCFEF7D5FFFEF759FDFEF7B3FDFEF7DD
:10307000D9FDFEF705FEFF48FD49002501604FF42C
:10308000E131C0E901150C21C560C0E90451856139
:10309000C561FEF7EDFBF74804218038FEF78AF999
:1030A000F448C038FEF78AF8F24800214038FEF7AD
:1030B000FFFAF14C65639FEDF10AA56384ED0F0AF9
:1030C0009FEDEF0BEB4984ED180B84ED160B0122FD
:1030D0005E31E848FEF74AFC01222146E548FEF74A
:1030E000FCFC9FEDE9DB9FEDEACAE24E4FF00108E0
:1030F00072369FEDE8AB9FEDE98B9FEDEA9B04F103
:103100008007E069012814D1E561307853287DD02B
:1031100004DC44282BD04928F5D104E0702876D06F
:103120007328F0D142E0606B012803D0A06B012826
:1031300013D0CDE194ED180B53EC1D2B51EC100B7B
:10314000FDF781F822E000BF51EC100BFDF714FAF7
:10315000C8498039FEF792FEBAE194ED0F0A30EECD
:103160000C0A1CE010EE100AFEF7CAFDB0E1606B1D
:10317000012803D0A06B01280DD0A9E194ED180B14
:1031800053EC1D2B51EC100BFDF7FEF841EC100B2E
:1031900084ED180BD8E794ED0F0A30EE4C0AB549D0
:1031A00084ED0F0A8039BDEEC00ADBE7FEF712FF9F
:1031B000C4F80C80C4E90D8570783179303800EBA3
:1031C0004002C2EBC01001EBC000B178642211FBD9
:1031D00002F1F27802EB820201EB42010844A0F511
:1031E000A050D038FDF7B7F941EC100B84ED180B67
:1031F0008DED000B707A3038FDF7ADF953EC1A2BDA
:10320000FDF7C8F841EC1F0B307A01E05EE187E082
:103210003038FDF7A0F953EC182BFDF7BBF841EC63
:103220001E0BF0793038FDF796F953EC192BFDF7AA
:10323000B1F841EC1B0B70793038FDF78CF953EC89
:103240001B2BFDF700F853EC1E2BFCF7FCFF53EC97
:103250001F2BFCF7F8FFC7E90001B07B3038FDF702
:103260007AF953EC1A2BFDF795F841EC1F0B707BA4
:103270003038FDF770F953EC182BFDF78BF841EC63
:103280001E0B307B3038FDF766F953EC192BFDF738
:1032900081F841EC1B0BB07A3038FDF75CF953EC48
:1032A0001B2BFCF7D0FF53EC1E2BFCF7CCFF53EC91
:1032B0001F2BFCF7C8FFC7E90401F07C3038FDF78D
:1032C0004AF953EC1A2BFDF765F841EC1B0BB07C67
:1032D0003038FDF740F953EC182BFDF75BF841EC63
:1032E0001E0B707C3038FDF736F953EC192BFDF7C7
:1032F00051F841EC1F0BF07B3038FDF72CF953EC03
:103300001F2BFCF7A0FF53EC1E2BFCF79CFF53EC8C
:103310001B2BFCF798FFC7E902019DED000B13E79B
:10332000FEF758FEC4F80C80C4E90D587078317966
:10333000303800EB4002C2EBC01001EBC001B078A6
:10334000642210FB02F0F27802EB820200EB4200F2
:103350000844A0F5A050D03800EE100AF8EEC0CA1C
:10336000C4ED0FCA707A3038FDF7F5F853EC1A2B1C
:10337000FDF710F841EC1F0B307A3038FDF7EBF811
:1033800053EC182BFDF706F841EC1E0BF0793038A2
:10339000FDF7E1F853EC192BFCF7FCFF41EC1B0B9C
:1033A00070793038FDF7D7F853EC1B2BFCF74BFF47
:1033B00053EC1E2BFCF747FF53EC1F2BFCF743FF8E
:1033C000C7E90001B07B3038FDF7C5F853EC1A2B84
:1033D000FCF7E0FF41EC1F0B707B3038FDF7BBF8CA
:1033E00053EC182BFCF7D6FF41EC1E0B307B30382A
:1033F000FDF7B1F853EC192BFCF7CCFF41EC1B0B9C
:10340000B07A3038FDF7A7F853EC1B2BFCF71BFF05
:1034100053EC1E2BFCF717FF53EC1F2BFCF713FF8D
:10342000C7E90401F07C3038FDF795F853EC1A2B0E
:10343000FCF7B0FF41EC1B0BB07C3038FDF78BF88C
:1034400053EC182BFCF7A6FF41EC1E0B707C3038B8
:10345000FDF781F853EC192BFCF79CFF41EC1F0B97
:10346000F07B3038FDF777F853EC1F2B1EE000009F
:10347000005000407001002000000020000000000B
:1034800000000000000000000000000000005940A3
:1034900000007042FCA9F1D24D62503F7B14AE4750
:1034A000E17A843F9A9999999999B93FFCF7CBFEB3
:1034B00053EC1E2BFCF7C7FE53EC1B2BFCF7C3FE93
:1034C000C7E902010649BDEEEC0A4BE6FEF782FDB4
:1034D000606A0A28FFF615AE00F004F8656210E68F
:1034E000F000002070B5274C2546606B012819D0EC
:1034F00094ED110ADFED240A9FED241A60EE200AF4
:1035000080EE810A84ED100A10EE100AFDF76CF8C7
:1035100041EC100B1EA153EC102B1F48FFF7A0F835
:103520001D4E27E094ED160B1B4853EC102B18A1F1
:103530000F38FFF795F8184E0F3E0BE0A069642393
:103540000122315C2970401CA06113480D494F389D
:10355000FEF766FA28780A28F0D10EE0A069642305
:103560000122315C2970401CA0610B4805494F388D
:10357000FEF756FA28780A28F0D10020A0612870BA
:1035800070BD0000000000200000B443000048446B
:1035900025302E30660D0A00BF010020000000001B
:1035A00000000000010203040607080900000000F3
:1035B00001020304D435000800000020B000000020
:1035C000A826000884360008B00000204805000046
:1035D000B826000800000000000000000000000005
:1035E00001000000010000000000000000000000D9
:1035F00000000000000000000000000000000000CB
:1036000000000000000000000000000000000000BA
:1036100000000000000000000000000000000000AA
:10362000000000007B14AE47E17A843F00000000F8
:10363000000000000000000000000000000000008A
:10364000000000000000000000000000000000007A
:10365000000000000000000000000000000000006A
:10366000000000000000000000000000000000005A
:103670000000000001000000100000000000000039
:043680000024F4002E
:040000050800018965
:00000001FF
